S011000070726F6A6563745F322E737265638B
S11300000C9497000C94B4000C94B4000C94B400B9
S11300100C94B4000C94B4000C94B4000C94B4008C
S11300200C94B4000C94B4000C94B4000C94B4007C
S11300300C944B030C949A030C94B4000C94B400E9
S11300400C94B4000C94B4000C94B4000C94B4005C
S11300500C94B4000C94B4000C9427030C94B400D6
S11300600C94B4000C94B6030C94B4000C94B40037
S11300700C94B4000C94B4000C94B4000C94B4002C
S11300800C94B4000C94B4000C94B4000C94B4001C
S11300900C94B4000C94B4000C94B4000C94F603C7
S11300A0E500F100FE000B011801250132013F01BA
S11300B04C01590190029002900290029002900229
S11300C0900218029002FC01900204029002900235
S11300D0CA01900290029002980176027E02900278
S11300E09002900290029002660190023602900201
S11300F0900290029002900290029002900290026C
S1130100900218029002FC019002040290029002F4
S1130110CA01900290029002980176027E02900237
S1130120900290029002900266019002360211241D
S11301301FBECFEFCDBFDFE3DEBF18E2A0E0B8E221
S1130140EAE1F4E102C005900D92A630B107D9F7B7
S113015028E2A6E0B8E201C01D92A335B207E1F798
S11301600E94B6000C944B080C940000CF93DF93CC
S1130170CDB7DEB7C054D109CDBFDEBF0E941F0486
S11301800E94B5040E9425040E9467040E947F0413
S11301900E9491040E94A3040E9439040E944F0407
S11301A078948091640888230CF0D0C12091600871
S11301B01982822F90E0FC01F097E734F10508F0F2
S11301C0AFC1E05BFF4F0C941F05109210288BE128
S11301D0EAE9F0E5DE01119601900D928A95E1F7C6
S11301E0B1C188EC8093102888E1E5EBF0E5DE01ED
S11301F0119601900D928A95E1F7A4C186E9809346
S113020010288BE1EDECF0E5DE01119601900D92E2
S11302108A95E1F797C184E6809310288AE1E8EE95
S1130220F0E5DE01119601900D928A95E1F78AC1FD
S113023080E5809310288AE1E2E0F1E5DE01119681
S113024001900D928A95E1F77DC182E38093102895
S11302508BE1ECE1F1E5DE01119601900D928A95B6
S1130260E1F770C188E2809310288AE1E7E3F1E5C1
S1130270DE01119601900D928A95E1F763C18EE13A
S1130280809310288BE1E1E5F1E5DE011196019000
S11302900D928A95E1F756C184E1809310288AE192
S11302A0ECE6F1E5DE01119601900D928A95E1F7F5
S11302B049C18AE0809310288BE1E6E8F1E5DE018C
S11302C0119601900D928A95E1F73CC18091022824
S11302D0811124C020910C2830910D28ADECBCEC88
S11302E00E94250596958795969587959695879569
S11302F09F938F9381EA91E59F938F93CE0101960B
S11303009F938F930E94610581E0809302280F9050
S11303100F900F900F900F900F9014C184E3E1ECB5
S1130320F1E5DE01119601900D928A95E1F70AC17B
S113033080910228811124C020910A2830910B2831
S1130340ADECBCEC0E94250596958795969587950E
S1130350969587959F938F9385EF91E59F938F93C0
S1130360CE0101969F938F930E94610581E0809353
S113037002280F900F900F900F900F900F90E2C0F3
S11303808EE3EFE1F2E5DE01119601900D928A957C
S1130390E1F7D8C080910228811124C02091082857
S11303A030910928ADECBCEC0E9425059695879503
S11303B096958795969587959F938F938DE592E56E
S11303C09F938F93CE0101969F938F930E94610513
S11303D081E0809302280F900F900F900F900F9060
S11303E00F90B0C08FE3E8E8F2E5DE0111960190CA
S11303F00D928A95E1F7A6C080910328813009F413
S1130400A1C0109203289EC080910328882319F06C
S1130410823009F097C082E0809303288EE2E7ECF3
S1130420F2E5DE01119601900D928A95E1F78AC0FA
S113043080910428811186C080910F288F93809128
S11304400E288F9385EF92E59F938F93CE010196AB
S11304509F938F930E94610581E0809304280F90FD
S11304600F900F900F900F900F906CC08091042804
S1130470811168C0A0910E28B0910F2820E432E4C5
S11304804FE050E00E9434052FEF33E040E050E0AD
S11304900E940005DA01C901880F991FAA1FBB1F1A
S11304A0880F991FAA1FBB1FBC01CD01620F731FC8
S11304B0841F951F28EE33E040E050E00E940005C1
S11304C03F932F9388E193E59F938F93CE010196F9
S11304D09F938F930E94610581E0809304280F907D
S11304E00F900F900F900F900F902CC080910328C5
S11304F0882341F181E08093032824C0809103285C
S113050081508230F8F482E0809303288CE2E3E4A3
S1130510F3E5DE01119601900D928A95E1F712C080
S11305201F922F938FE693E59F938F93CE010196AD
S11305309F938F930E9461050F900F900F900F90DF
S11305400F900F90CE0101960E94C0048091032861
S1130550811136C080910228811124C020910C2879
S113056030910D28ADECBCEC0E942505969587953D
S113057096958795969587959F938F9386E893E5AF
S11305809F938F93CE0101969F938F930E94610551
S113059081E0809302280F900F900F900F900F909E
S11305A00F9009C08BE3EDEAF3E5DE0111960190AB
S11305B00D928A95E1F7CE0101960E94C004F1CD17
S11305C0813009F0EECD809104288111EACDA0910B
S11305D00E28B0910F2820E432E44FE050E00E944E
S11305E034052FEF33E040E050E00E940005DA01CB
S11305F0C901880F991FAA1FBB1F880F991FAA1F23
S1130600BB1FBC01CD01620F731F841F951F28EE11
S113061033E040E050E00E9400053F932F9388EEC2
S113062093E59F938F938E010F5F1F4F1F930F933B
S11306300E946105C8010E94C00481E080930428DF
S11306400F900F900F900F900F900F90AACD1F92C4
S11306500F920FB60F9211242F938F939F93809133
S113066010069091110680930E2890930F281092F3
S113067004288D3C924020F082E08093050403C05E
S113068082E0809306049F918F912F910F900FBE6B
S11306900F901F9018951F920F920FB60F9211246E
S11306A02F933F934F935F938F939F93EF93FF9376
S11306B0E0E8FAE081E086838285938580930C28C4
S11306C090930D282485358520930A2830930B2890
S11306D0AC01421B530B40930828509309281092F5
S11306E0022810929A0A10929B0A813D57E09507BE
S11306F020F020E42093450403C020E42093460422
S1130700893B9B4020F084E08093250403C084E06F
S11307108093260480E18093A604FF91EF919F913A
S11307208F915F914F913F912F910F900FBE0F903A
S11307301F9018951F920F920FB60F9211248F934A
S11307409F9381E08093960A90E19093A50494E0AE
S11307509093260490E490934604809302289F91FA
S11307608F910F900FBE0F901F9018951F920F92AC
S11307700FB60F9211242F933F934F935F936F9370
S11307807F938F939F93AF93BF93EF93FF9381E0F6
S11307908093A60A909110289923B9F08091072894
S11307A08F5F80930728891780F060E078E286E005
S11307B098E20E94E004809100289091012880939F
S11307C0380A9093390A10920728FF91EF91BF914C
S11307D0AF919F918F917F916F915F914F913F91D5
S11307E02F910F900FBE0F901F9018951F920F928C
S11307F00FB60F9211248F93EF93FF93E0E6F8E086
S113080084818064848380915228E0911128E817C0
S113081058F481E08E0F80931128F0E0EE5EF74DDE
S113082080818093620803C081E080930528FF9152
S1130830EF918F910F900FBE0F901F90189560E06D
S113084081E690E00E9414080895E0E2F4E080E17B
S1130850818390E2928390E49093410494E09183A5
S11308608093A104E0E0F4E082E0818381E081836D
S11308700895E0EEF5E0828180648283E0E6F8E0AA
S11308808681806C8683878183608783128286EB6E
S113089092E0808791878581806485830895E0E074
S11308A0F6E083E0868380818083818181838281F5
S11308B08565828383818062838382858160828768
S11308C08081816080838185816081870895E0EEE5
S11308D0F5E084818483E0E0FAE0808188608083AD
S11308E081818361818387EA91E686A397A381EE60
S11308F094E080A791A78081816080830895E0E8D7
S1130900FAE0808182608083818185608183858132
S11309108160858384818161848380818160808317
S11309200895E0E9FAE08081826080838181818397
S113093085818160858380E29EE4848795878081B8
S1130940816080830895E0EAFAE080818260808398
S11309508181818380E593EC84879587858181609B
S113096085838081816080830895E0E8F1E084EAF2
S1130970828B83E080A783E4848B85E084AB089535
S1130980DC01809105288130E1F710925228809390
S113099011280CC0E091522881E08E0F80935228D8
S11309A0F0E08C91EE5EF74D808311968C9181116D
S11309B0F1CF10920528809112288093620808953F
S11309C0FC01908191110EC0DB012D913C91119796
S11309D02E5C3F4F2D933C93233C394080F081E0C3
S11309E080830895913059F4DB018D919C91119786
S11309F0C2978D939C93823E944008F4108208958C
S1130A00052E97FB1EF400940E94170557FD07D08E
S1130A100E943F0507FC03D04EF40C941705509533
S1130A204095309521953F4F4F4F5F4F08959095D6
S1130A308095709561957F4F8F4F9F4F0895EE0F6E
S1130A40FF1F0590F491E02D0994A29FB001B39F7C
S1130A50C001A39F700D811D1124911DB29F700DC3
S1130A60811D1124911D08950E942505A59F900DB7
S1130A70B49F900DA49F800D911D11240895A1E2AF
S1130A801A2EAA1BBB1BFD010DC0AA1FBB1FEE1F04
S1130A90FF1FA217B307E407F50720F0A21BB30B4F
S1130AA0E40BF50B661F771F881F991F1A9469F7CB
S1130AB060957095809590959B01AC01BD01CF0127
S1130AC00895AEE0B0E0E7E6F5E00C9428080D895F
S1130AD01E8986E08C8309831A838FEF9FE78D83B9
S1130AE09E83AE01475E5F4F6F89788DCE0101967C
S1130AF00E948305EF81F885E00FF11F10822E9686
S1130B00E4E00C944108ABE0B0E0E9E8F5E00C94D3
S1130B101A086C017B018A01FC0116821782838109
S1130B2081FFCCC1CE0101963C01F6019381F7010E
S1130B3093FD859193FF81917F01882309F4BAC1C4
S1130B40853239F493FD859193FF81917F0185323C
S1130B5029F4B60190E00E947A07E7CF912C212C6A
S1130B60312CFFE1F315D8F08B3279F038F4803270
S1130B7079F08332A1F4232D20611DC08D3261F000
S1130B80803369F4232D216016C0832D8260382EB2
S1130B90E32DE4603E2E2AC0F32DF8601DC037FC1F
S1130BA02DC020ED280F2A3040F08E32B9F436FCE7
S1130BB081C1232D2064322E19C036FE06C08AE07E
S1130BC0989E200D1124922E11C0EAE02E9E200D35
S1130BD01124222EF32DF0623F2E08C08C3621F40E
S1130BE0832D8068382E02C0883641F4F70193FDC6
S1130BF0859193FF81917F018111B3CF982F9F7DC0
S1130C009554933028F40C5F1F4F9FE399830DC0D4
S1130C10833631F0833771F0833509F059C021C030
S1130C20F801808189830E5F1F4F88248394912C5F
S1130C30530113C02801F2E04F0E511CF801A080AB
S1130C40B18036FE03C0692D70E002C06FEF7FEF04
S1130C50C5010E946F074C018201F32DFF773F2EDF
S1130C6016C0280122E0420E511CF801A080B18078
S1130C7036FE03C0692D70E002C06FEF7FEFC5013F
S1130C800E9464074C01F32DF0683F2E820133FC6F
S1130C901BC0822D90E088169906B0F4B60180E25C
S1130CA090E00E947A072A94F4CFF50137FC8591ED
S1130CB037FE81915F01B60190E00E947A0721100E
S1130CC02A9421E0821A91088114910471F7E8C0F2
S1130CD0843611F0893641F5F80137FE07C060818A
S1130CE07181828193810C5F1F4F08C06081718183
S1130CF0072E000C880B990B0E5F1F4FF32DFF7608
S1130D003F2E97FF09C090958095709561957F4F10
S1130D108F4F9F4FF0683F2E2AE030E0A3010E94DE
S1130D20B607882E861845C0853731F4232D2F7ECB
S1130D30B22E2AE030E025C0932D997FB92E8F364C
S1130D40C1F018F4883579F0B5C0803719F08837C8
S1130D5021F0B0C0E92FE061BE2EB4FE0DC0FB2D22
S1130D60F460BF2E09C034FE0AC0292F2660B22EBB
S1130D7006C028E030E005C020E130E002C020E1F8
S1130D8032E0F801B7FE07C06081718182819381EE
S1130D900C5F1F4F06C06081718180E090E00E5FA0
S1130DA01F4FA3010E94B607882E8618FB2DFF77DC
S1130DB03F2E36FE0DC0232D2E7FA22E891458F40B
S1130DC034FE0BC032FC09C0832D8E7EA82E05C0D4
S1130DD0B82CA32C03C0B82C01C0B92CA4FE0FC09E
S1130DE0FE01E80DF11D8081803321F49A2D997E56
S1130DF0A92E09C0A2FE06C0B394B39404C08A2DE0
S1130E00867809F0B394A3FC11C0A0FE06C0B21406
S1130E1088F4280C922C9B180EC0B21460F4B6010E
S1130E2080E290E00E947A07B394F7CFB21418F4EA
S1130E302B1802C0982C212CA4FE10C0B60180E30C
S1130E4090E00E947A07A2FE17C0A1FC03C088E7C5
S1130E5090E002C088E590E0B6010CC08A2D867847
S1130E6059F0A1FE02C08BE201C080E2A7FC8DE232
S1130E70B60190E00E947A07891438F4B60180E341
S1130E8090E00E947A079A94F7CF8A94F301E80DD0
S1130E90F11D8081B60190E00E947A078110F5CFA0
S1130EA0222009F442CEB60180E290E00E947A0743
S1130EB02A94F6CFF6018681978102C08FEF9FEFC7
S1130EC02B96E2E10C943308FC01059061507040CC
S1130ED00110D8F7809590958E0F9F1F0895FC01FF
S1130EE06150704001900110D8F7809590958E0F55
S1130EF09F1F08950F931F93CF93DF93FB012381CB
S1130F0021FD03C08FEF9FEF2CC022FF16C0468146
S1130F105781248135814217530744F4A081B1815C
S1130F209D012F5F3F4F208331838C93268137812E
S1130F302F5F3F4F2683378314C08B01EC01FB01E5
S1130F400084F185E02D0995892BE1F6D8011696E8
S1130F508D919C911797019616968D939C93179754
S1130F60CE01DF91CF911F910F910895FA01AA2725
S1130F70283051F1203181F1E8946F936E7F6E5FD8
S1130F807F4F8F4F9F4FAF4FB1E03ED0B4E03CD086
S1130F90670F781F891F9A1FA11D680F791F8A1F69
S1130FA0911DA11D6A0F711D811D911DA11D20D0D0
S1130FB009F468943F912AE0269F11243019305D8A
S1130FC03193DEF6CF010895462F4770405D41937B
S1130FD0B3E00FD0C9F7F6CF462F4F70405D4A33C8
S1130FE018F0495D31FD4052419302D0A9F7EACF90
S1130FF0B4E0A6959795879577956795BA95C9F7BF
S113100000976105710508959B01AC010A2E0694B1
S11310105795479537952795BA95C9F7620F731F6A
S1131020841F951FA01D0895DC0128ED2093340032
S11310306C9308952F923F924F925F926F927F929A
S11310408F929F92AF92BF92CF92DF92EF92FF92D4
S11310500F931F93CF93DF93CDB7DEB7CA1BDB0B80
S1131060CDBFDEBF09942A88398848885F846E849E
S11310707D848C849B84AA84B984C884DF80EE80B8
S1131080FD800C811B81AA81B981CE0FD11DCDBFFA
S10D1090DEBFED010895F894FFCFD0
S113109A303A205B736572766F206D2E5D206E6F19
S11310AA206D6F76656D656E740A00313A205B7344
S11310BA6572766F206D2E5D2031732073746570AE
S11310CA730A00323A205B736572766F206D2E5D67
S11310DA20302C3735732073746570730A00333AE1
S11310EA205B736572766F206D2E5D20302C35730C
S11310FA2073746570730A00343A205B73657276E0
S113110A6F206D2E5D20302C3473207374657073D8
S113111A0A00353A205B736572766F206D2E5D2066
S113112A302C3235732073746570730A00363A2092
S113113A5B736572766F206D2E5D20302C327320BE
S113114A73746570730A00373A205B736572766F3D
S113115A206D2E5D20302C313573207374657073C5
S113116A0A00383A205B736572766F206D2E5D2013
S113117A302C31732073746570730A00393A205B1A
S113118A736572766F206D2E5D20302C3035732096
S113119A73746570730A0074206F7220543A203590
S11311AA35352074696D657220706572696F643AA9
S11311BA20256475730A0074206F7220543A20350E
S11311CA35352074696D657220706572696F643A89
S11311DA206E6F20696E707574207369676E616C16
S11311EA2064657465637465640A006C206F7220F8
S11311FA4C3A203535352074696D6572206C6F77E9
S113120A2070756C736520706572696F643A202565
S113121A6475730A006C206F72204C3A2035353598
S113122A2074696D6572206C6F772070756C7365B4
S113123A20706572696F643A206E6F20696E7075EA
S113124A74207369676E616C206465746563746580
S113125A640A0068206F7220483A203535352074B4
S113126A696D657220686967682070756C7365209A
S113127A706572696F643A20256475730A00682080
S113128A6F7220483A203535352074696D657220AD
S113129A686967682070756C736520706572696F18
S11312AA643A206E6F20696E707574207369676E74
S11312BA616C2064657465637465640A0065206FF3
S11312CA7220453A2053746F707065642054696DB6
S11312DA657220636F6E74696E756F7573207265BB
S11312EA706F7274206D6F64650A0061206F7220DA
S11312FA413A2041444320636F6E76657273696F85
S113130A6E20726573756C743A2025640A0076201F
S113131A6F7220563A2041444320636F6E76657299
S113132A73696F6E20726573756C7420696E206DB3
S113133A563A2025646D560A006E206F72204E3A82
S113134A2053746F707065642041444320636F6E48
S113135A74696E756F7573207265706F7274206D1F
S113136A6F64650A0025633A20496E76616C696484
S113137A206368617261637465720A0063206F7224
S113138A20433A205B636F6E745D203535352074D3
S113139A696D657220706572696F643A2025647597
S11313AA730A0063206F7220433A205B636F6E7482
S11313BA5D203535352074696D65722070657269F2
S11313CA6F643A206E6F20696E7075742073696752
S11313DA6E616C2064657465637465640A006D20CB
S11313EA6F72204D3A205B636F6E745D20414443F3
S11313FA20636F6E76657273696F6E20726573759A
S113140A6C7420696E206D563A2025646D560A0064
S109141AE10401020101DE
S9030000FC
